:1000000016EF00F00000000000EF00F0000000001C
:0A0010000000000000000000F3D71C
:10001C000900F5CFE6FF0006FBE10106F9E112004D
:10002C00010E936E956A0F01396B800E8C6E81A652
:10003C005BD0150E0B6E4B0E0C6EBE0E0D6E0D2E98
:10004C00FED70C2EFCD70B2EFAD7000081A626D09B
:10005C00300E8C6E000E0A6E000E0B6E000E0C6EC7
:10006C00000E0D6E0D2EFED70C2EFCD70B2EFAD7D4
:10007C000A2EF8D7AD0E0A6E090E0B6ECF0E0C6E53
:10008C004D0E0D6E0D2EFED70C2EFCD70B2EFAD767
:10009C000A2EF8D70000800E8C6E25D0100E8C6EB8
:1000AC00000E0A6E000E0B6E000E0C6E000E0D6E26
:1000BC000D2EFED70C2EFCD70B2EFAD70A2EF8D706
:1000CC001E0E0A6E5C0E0B6E350E0C6E310E0D6E26
:1000DC000D2EFED70C2EFCD70B2EFAD70A2EF8D7E6
:1000EC000000800E8C6E2ED081A21AD00B0E0B6EDF
:1000FC00260E0C6E5D0E0D6E0D2EFED70C2EFCD743
:10010C000B2EFAD700000000400E8C6E81A403D099
:10011C00800E8C6E04D081A601D08BD7F5D712D06F
:10012C0081A410D00B0E0B6E260E0C6E5D0E0D6E98
:10013C000D2EFED70C2EFCD70B2EFAD7000000008C
:08014C00800E8C6E74D7FFD702
:020000040030CA
:0D00010003193CFFB580FF0FC00FE00F405A
:00000001FF
