:1000000016EF00F00000000000EF00F0000000001C
:0A0010000000000000000000F3D71C
:10001C000900F5CFE6FF0006FBE10106F9E112004D
:10002C00010E936E956A0F01396B3B6B070E8C6E4C
:10003C0081A01ED00B0E0B6E260E0C6E5D0E0D6E7F
:10004C000D2EFED70C2EFCD70B2EFAD7000000007D
:10005C00C00E8C6E290E0B6E960E0C6E7F0E0D6EF6
:10006C000D2EFED70C2EFCD70B2EFAD78C6A42D055
:10007C0081A220D00B0E0B6E260E0C6E5D0E0D6E3B
:10008C000D2EFED70C2EFCD70B2EFAD7000000003D
:10009C00C00E8C6E7A0E0B6EC10E0C6E810E0D6E38
:1000AC000D2EFED70C2EFCD70B2EFAD7000000001D
:1000BC008C6A20D081A41ED00B0E0B6E260E0C6EFB
:1000CC005D0E0D6E0D2EFED70C2EFCD70B2EFAD717
:1000DC0000000000C00E8C6ECB0E0B6EEC0E0C6E86
:1000EC00840E0D6E0D2EFED70C2EFCD70B2EFAD7D0
:0800FC0000008C6A9DD7FFD7BC
:020000040030CA
:0D00010003193CFFB580FF0FC00FE00F405A
:00000001FF
