:1000000016EF00F00000000000EF00F0000000001C
:0A0010000000000000000000F3D71C
:10001C000900F5CFE6FF0006FBE10106F9E112004D
:10002C00010E936E956A0F01396B3B6B8C6A81A63E
:10003C0030D0150E0B6E4B0E0C6EBE0E0D6E0D2EC3
:10004C00FED70C2EFCD70B2EFAD7000081A611D0B0
:10005C00B00E8C6ECB0E0B6EEC0E0C6E840E0D6E09
:10006C000D2EFED70C2EFCD70B2EFAD700008C6A67
:10007C000FD0900E8C6E290E0B6E960E0C6E7F0EA2
:10008C000D6E0D2EFED70C2EFCD70B2EFAD78C6ACC
:10009C002CD081A219D00B0E0B6E260E0C6E5D0EA1
:1000AC000D6E0D2EFED70C2EFCD70B2EFAD70000A2
:1000BC000000C00E8C6E81A402D08C6A04D081A684
:1000CC0001D0B7D7F6D711D081A40FD00B0E0B6E81
:1000DC00260E0C6E5D0E0D6E0D2EFED70C2EFCD763
:0E00EC000B2EFAD7000000008C6AA1D7FFD7B8
:020000040030CA
:0D00010003193CFFB580FF0FC00FE00F405A
:00000001FF
